:100000000C94AA000C94CB000C94CB000C94CB0065
:100010000C94CB000C94CB000C94CB000C94CB0034
:100020000C94CB000C94CB000C94CB000C94CB0024
:100030000C94CB000C94CB000C94CB000C94CB0014
:100040000C94CB000C94CB000C94CB000C94CB0004
:100050000C94CB000C94CB000C94CB000C94CB00F4
:100060000C94CB000C942F020C94CB000C94CB007E
:100070000C94CB000C94CB000C94CB000C94CB00D4
:100080000C94CB000C94CB000C94CB000C94CB00C4
:100090000C94B9010C94CB000C94CB000C94CB00C5
:1000A0000C94CB000C94CB000C94CB000C94CB00A4
:1000B0000C94CB000C94CB000C94CB000C94A502B8
:1000C0000C94CB000C94CB000C94CB000C9443010B
:1000D0000C94CB000C94CB000C94CD000C94CB0072
:1000E0000C94CB000C9413010C9489010C943701EF
:1000F0000C9499020C942F010C943F010C947502FE
:100100000C942B020C9427020C94AD010C94330137
:100110000C94B1010C9491020C94A1010C9417025F
:100120000C94A5010C94A9010C94A1020C943B0120
:100130000C942B010C9423020C949D020C948D02C0
:100140000C94FF010C9495020C941B020C941F025A
:100150000C94B50111241FBECFEFD1E2DEBFCDBF9D
:1001600000E00CBF12E0A0E0B2E0E6E7FEE000E055
:100170000BBF02C007900D92A231B107D9F722E060
:10018000A2E1B2E001C01D92AE34B207E1F70E94D5
:10019000CA020C9439070C9400001F920F920FB6FC
:1001A0000F9211240BB60F922F938F939F93EF937F
:1001B000FF93909136019E3F19F5209103028091A3
:1001C0004D0228131BC080914C0280934B028091FA
:1001D0004A028093490280914802809347028091AD
:1001E00046028093450280914402809343028091AD
:1001F00042028093410281E08093400210924D02BE
:10020000E0914D02E150E730A8F4F0E08827E45F88
:10021000FE4F8F4F0C94230413012B012F01330148
:1002200037013B013F0182E0890F8093030282E0A6
:1002300080934D029F3F19F481E080934D02FF911E
:10024000EF919F918F912F910F900BBE0F900FBE4A
:100250000F901F90189590934C0283E0E9CF9093F4
:100260004A0284E0E5CF9093480285E0E1CF909385
:10027000460286E0DDCF9093440287E0D9CF909389
:10028000420288E0D5CF1F920F920FB60F92112431
:100290000BB60F922F938F939F93EF93FF939091B1
:1002A000D6009E3F19F52091020280913F0228134B
:1002B0001BC080913E0280933D0280913C0280935E
:1002C0003B0280913A0280933902809138028093F8
:1002D00037028091360280933502809134028093F8
:1002E000330281E08093400210923F02E0913F028E
:1002F000E150E730A8F4F0E08827EE57FE4F8F4F2B
:100300000C9423048901A101A501A901AD01B1014A
:10031000B50182E0890F8093020282E080933F0260
:100320009F3F19F481E080933F02FF91EF919F91ED
:100330008F912F910F900BBE0F900FBE0F901F90BB
:10034000189590933E0283E0E9CF90933C0284E0BD
:10035000E5CF90933A0285E0E1CF9093380286E0B2
:10036000DDCF9093360287E0D9CF9093340288E0B6
:10037000D5CF1F920F920FB60F9211240BB60F928A
:100380002F938F939F93EF93FF939091CE009E3F77
:1003900019F5209101028091320228131BC080912F
:1003A00031028093300280912F0280932E0280913F
:1003B0002D0280932C0280912B0280932A0280913F
:1003C000290280932802809127028093260281E0EF
:1003D0008093250210923202E0913202E150E73020
:1003E000A8F4F0E08827E850FE4F8F4F0C942304C8
:1003F000FF0117021B021F02230227022B0282E0C9
:10040000890F8093010282E0809332029F3F19F4AA
:1004100081E080933202FF91EF919F918F912F9114
:100420000F900BBE0F900FBE0F901F9018959093DA
:10043000310283E0E9CF90932F0284E0E5CF9093DF
:100440002D0285E0E1CF90932B0286E0DDCF9093E3
:10045000290287E0D9CF9093270288E0D5CF1F9259
:100460000F920FB60F9211240BB60F922F938F930A
:100470009F93EF93FF939091C6009E3F19F52091B3
:1004800000028091240228131BC0809123028093D4
:100490002202809121028093200280911F0280938A
:1004A0001E0280911D0280931C0280911B0280938A
:1004B0001A02809119028093180281E0809317023A
:1004C00010922402E0912402E150E730A8F4F0E019
:1004D0008827E259FD4F8F4F0C94230475028D023B
:1004E0009102950299029D02A10282E0890F8093F8
:1004F000000282E0809324029F3F19F481E0809300
:100500002402FF91EF919F918F912F910F900BBE3D
:100510000F900FBE0F901F9018959093230283E0C9
:10052000E9CF9093210284E0E5CF90931F0285E00C
:10053000E1CF90931D0286E0DDCF90931B0287E010
:10054000D9CF9093190288E0D5CF1F920F920FB6A2
:100550000F9211248F939F93AF93BF9380911302B7
:1005600090911402A0911502B09116020196A11D5E
:10057000B11D8093130290931402A0931502B093BF
:100580001602BF91AF919F918F910F900FBE0F9068
:100590001F901895CF93DF93CDB7DEB7E2970FB6D4
:1005A000F894DEBF0FBECDBF28E12093C10096E0D6
:1005B0009093C20048E050E05093C5004093C400BF
:1005C0008091C10080688093C1002093D1009093F6
:1005D000D20089E190E09093D5008093D40080917F
:1005E000D10080688093D1001092200188E0809330
:1005F000210110922501109224018FE79EE3909330
:100600002901809328018091730082608093730098
:1006100080912101816080932101789487E080930B
:100620007A0080E480937C0010927B0080917A00B5
:10063000806880937A002FEF49EF80E0215040409E
:100640008040E1F700C0000084B1806684B981B1C8
:100650008F6081B982B1807F82B980EA8093800007
:1006600082E18093810080ED97E0909387008093F2
:10067000860084E0282E82E0382ECE0101964C01BF
:10068000412C92E0592E612C712C80917B00877F48
:1006900080937B0080917C00807E80937C008091A1
:1006A0007A00806480937A0080917A0086FDFCCF86
:1006B000E0907800F090790080917B00877F8093B4
:1006C0007B0080917C00807E816080937C008091A3
:1006D0007A00806480937A0080917A0086FDFCCF56
:1006E00000917800109179001F930F93FF92EF9281
:1006F0003F922F929F928F920E946304F4010FB653
:10070000F894DEBF0FBECDBF819181115BC092E036
:10071000F91A12505701A00EB11E6801CE18DF0859
:10072000F7FE03C0F194E194F10825E1E216F1042B
:100730004CF417FF03C011950195110905311105FE
:100740000CF447C020ED37E0D5010E942B04A30133
:1007500092010E940404C90137FF04C08827992729
:10076000821B930B8C0120ED37E0D6010E942B04F5
:10077000A30192010E940404C90137FF04C0882725
:100780009927821B930B382F292FC801013D174051
:1007900014F080ED97E09093890080938800832F78
:1007A000922F813D27E0920714F080ED97E090931F
:1007B0008B0080938A0045E1A416B1047CF0109A66
:1007C000119813C09091C00095FFFCCF8093C60094
:1007D0009BCF30E020E000E010E0D7CF10988CEE07
:1007E000A8168FEFB80664F7119A95E1C916D104DF
:1007F0001CF0129A139849CF12982CEEC2162FEFC4
:10080000D206C4F7139A41CF052E97FB1EF400942D
:100810000E941B0457FD07D00E94320407FC03D03E
:100820004EF40C941B0450954095309521953F4F04
:100830004F4F5F4F089590958095709561957F4FCC
:100840008F4F9F4F0895EE0FFF1F881F8BBF07909C
:10085000F691E02D19940E945404B7FF0895821B6D
:10086000930B0895A1E21A2EAA1BBB1BFD010DC01C
:10087000AA1FBB1FEE1FFF1FA217B307E407F50750
:1008800020F0A21BB30BE40BF50B661F771F881F2C
:10089000991F1A9469F760957095809590959B01C2
:1008A000AC01BD01CF010895A29FB001B39FC0016B
:1008B000A39F700D811D1124911DB29F700D811D8C
:1008C0001124911D08950F931F93CF93DF93CDB7FC
:1008D000DEB72E970FB6F894DEBF0FBECDBF0E89E0
:1008E0001F8986E08C831A8309838FEF9FE79E839D
:1008F0008D83AE01465E5F4F688D798DCE01019686
:100900000E9493042F813885020F131FF801108273
:100910002E960FB6F894DEBF0FBECDBFDF91CF91FC
:100920001F910F9108952F923F924F925F926F9275
:100930007F928F929F92AF92BF92CF92DF92EF926F
:10094000FF920F931F93CF93DF9300D000D000D07E
:100950001F921F92CDB7DEB77C013B018A01FC01DB
:1009600017821682838181FFDDC1CE0101965C0171
:10097000F7019381F30193FD859193FF81913F01ED
:10098000882309F453C1853239F493FD859193FF8F
:1009900081913F01853229F4B70190E00E94AB06B6
:1009A000E7CF912C212C312CFFE1F31538F08B325D
:1009B00011F190F4803209F1833229F137FC3CC007
:1009C00020ED280F2A3050F536FE20C08AE0989E90
:1009D000200D1124922E06C08D3291F0803371F7D4
:1009E000689430F8F30193FD859193FF81913F0165
:1009F0008111DACF21C0689431F8689432F8F2CFCF
:100A0000689433F8EFCF689434F8ECCFEAE02E9E88
:100A1000200D1124222E689435F8E4CF8E3229F46B
:100A200036FC04C1689436F8DDCF8C3619F468942E
:100A300037F8D8CF8836B1F2982F9F7D95549330F0
:100A4000E0F08336A1F18337C1F1833509F063C04B
:100A50002801F2E04F0E511CF801C080D180692DB1
:100A600070E036FC02C06FEF7FEFC6010E94950672
:100A70004C01689437F882010AC00C5F1F4FFFE3F6
:100A8000F98388248394912C6501E89437F833FE28
:100A90002DC0522C8114910471F5552009F468CFB2
:100AA000B70180E290E00E94AB065A94F6CFF801BD
:100AB000808189830E5F1F4FE4CF2801F2E04F0E43
:100AC000511CF801C080D180692D70E036FC02C055
:100AD0006FEF7FEFC6010E94A0064C018201D5CFC7
:100AE000B70180E290E00E94AB062A942814190412
:100AF00009F0B0F7CECFF60137FC859137FE819132
:100B00006F01B70190E00E94AB0651105A94F1E0DA
:100B10008F1A9108BFCF843619F0893609F077C053
:100B2000F80137FE6BC060817181828193810C5F17
:100B30001F4FF32DFF763F2E97FF09C090958095AC
:100B4000709561957F4F8F4F9F4F689437F82AE0DB
:100B500030E0A5010E94DB06C82ECA188C2C432C5D
:100B600036FE0CC0E89440F8C91440F434FE05C0C9
:100B700032FC03C0F32DFE7E4F2E892C44FEAAC00A
:100B8000FE01EC0DF11D8081803309F09CC0242D05
:100B9000297E422E842D8870582E43FCAAC040FE28
:100BA000A4C09C2C821418F42C0C922C981844FE8F
:100BB000A6C0B70180E390E00E94AB0642FE09C0E8
:100BC00088E790E041FE02C088E590E0B7010E940E
:100BD000AB06C91408F49FC0CA94D12C9FEFC91A60
:100BE000D90ACA0CDB1CF60182916F01B70190E0B3
:100BF0000E94AB06AC14BD04B1F74FCF6081718188
:100C0000072E000C880B990B0E5F1F4F92CFD32C31
:100C1000E894D4F82AE030E08537E1F1232D297FEC
:100C2000D22E8F36A9F1F0F4883551F1F701868183
:100C300097812B960FB6F894DEBF0FBECDBFDF9124
:100C4000CF911F910F91FF90EF90DF90CF90BF90C9
:100C5000AF909F908F907F906F905F904F903F905C
:100C60002F900895803749F0883701F7D4FE02C0ED
:100C70006894D2F820E130E00DC06894D4F8F6CF43
:100C800034FE03C0822F8660D82E20E132E002C0FD
:100C900028E030E0F801D7FE0FC0608171818281C9
:100CA00093810C5F1F4FA5010E94DB06C82ECA1856
:100CB0003D2CE89437F852CF6081718190E080E05C
:100CC0000E5F1F4FF0CF42FC02C0839463CF83942A
:100CD000839460CF842D867809F45CCFF6CFB7017A
:100CE00080E290E00E94AB0683948214C0F3512C02
:100CF0005ECF522C5818821408F459CFF8CF842DA7
:100D0000867809F466CF8BE241FE80E247FC8DE2F3
:100D1000B70190E05CCFB70180E390E00E94AB06A2
:100D20009A9457CF8FEF9FEF84CFFC0105906150CD
:100D300070400110D8F7809590958E0F9F1F0895F1
:100D4000FC016150704001900110D8F7809590959A
:100D50008E0F9F1F08950F931F93CF93DF93182F2C
:100D6000092FEB018B8181FD09C01FEF0FEF812F50
:100D7000902FDF91CF911F910F91089582FF14C0A2
:100D80002E813F818C819D81281739073CF4E881B1
:100D9000F981CF0101969983888310838E819F8189
:100DA00001969F838E83E3CFE885F985812F19957E
:100DB000892BA1F3DACFFA01AA27283051F120318B
:100DC00081F1E8946F936E7F6E5F7F4F8F4F9F4FDF
:100DD000AF4FB1E03ED0B4E03CD0670F781F891F21
:100DE0009A1FA11D680F791F8A1F911DA11D6A0FEF
:100DF000711D811D911DA11D20D009F468943F91A2
:100E00002AE0269F11243019305D3193DEF6CF01A0
:100E10000895462F4770405D4193B3E00FD0C9F766
:100E2000F6CF462F4F70405D4A3318F0495D31FDD3
:100E30004052419302D0A9F7EACFB4E0A695979526
:100E4000879577956795BA95C9F7009761057105FC
:100E500008959B01AC010A2E069457954795379546
:100E60002795BA95C9F7620F731F841F951FA01DA0
:060E70000895F894FFCF85
:100E760006060606583A2025752C20593A2025756F
:020E86000A0060
:00000001FF
