:100000000C949C000C94BD000C94BD000C94BD009D
:100010000C94BD000C94BD000C94BD000C94BD006C
:100020000C94BD000C94BD000C94BD000C94BD005C
:100030000C94BD000C94BD000C94BD000C94BD004C
:100040000C94BD000C94BD000C94BD000C94BD003C
:100050000C94BD000C94BD000C94BD000C94BD002C
:100060000C94BD000C94B2010C94BD000C94BD0026
:100070000C94BD000C94BD000C94BD000C94BD000C
:100080000C94BD000C94BD000C94BD000C94BD00FC
:100090000C94BD000C94BD000C94BD000C94BD00EC
:1000A0000C94BD000C94BD000C94BD000C94BD00DC
:1000B0000C94BD000C94BD000C94BD000C9428025F
:1000C0000C94BD000C94BD000C94BD000C943C013C
:1000D0000C94BD000C94BD000C94C6000C94BD00A3
:1000E0000C94BD000C94A6010C9424010C943401D2
:1000F0000C949E010C9420020C94A2010C949A0181
:100100000C9424020C94AE010C9430010C94380130
:100110000C94F8010C940C010C9428010C948201AD
:100120000C941C020C9414020C9418020C942C01D4
:100130000C94AA010C94100211241FBECFEFD1E23F
:10014000DEBFCDBF00E00CBF12E0A0E0B2E0E8E40B
:10015000FCE000E00BBF02C007900D92AC32B1078B
:10016000D9F722E0ACE2B2E001C01D92A53AB20795
:10017000E1F70E944D020C9422060C94000090912D
:10018000C80095FFFCCF8093CE0008951F920F9278
:100190000FB60F9211240BB60F922F938F939F934C
:1001A000EF93FF93909136019E3F19F52091020243
:1001B0008091A40228131BC08091A3028093A20205
:1001C0008091A1028093A00280919F0280939E0261
:1001D00080919D0280939C0280919B0280939A0261
:1001E000809199028093980281E080939702109207
:1001F000A402E091A402E150E730A8F4F0E08827DF
:10020000EB5FFE4F8F4F0C9444030C012401280137
:100210002C0130013401380182E0890F8093020201
:1002200082E08093A4029F3F19F481E08093A402AE
:10023000FF91EF919F918F912F910F900BBE0F9097
:100240000FBE0F901F9018959093A30283E0E9CF03
:100250009093A10284E0E5CF90939F0285E0E1CFE7
:1002600090939D0286E0DDCF90939B0287E0D9CFEB
:100270009093990288E0D5CF1F920F920FB60F92FC
:1002800011240BB60F922F938F939F93EF93FF93AD
:100290009091D6009E3F19F520910102809196021F
:1002A00028131BC080919502809394028091930241
:1002B00080939202809191028093900280918F02AC
:1002C00080938E0280918D0280938C0280918B02AC
:1002D00080938A0281E08093970210929602E091C7
:1002E0009602E150E730A8F4F0E08827E558FE4F89
:1002F0008F4F0C94440382019A019E01A201A60132
:10030000AA01AE0182E0890F8093010282E080930E
:1003100096029F3F19F481E080939602FF91EF913E
:100320009F918F912F910F900BBE0F900FBE0F904A
:100330001F9018959093950283E0E9CF90939302D4
:1003400084E0E5CF9093910285E0E1CF90938F0216
:1003500086E0DDCF90938D0287E0D9CF90938B021A
:1003600088E0D5CF1F920F920FB60F9211240BB6D3
:100370000F922F938F939F93EF93FF939091C600CB
:100380009E3F19F5209100028091890228131BC01D
:1003900080918802809387028091860280938502F3
:1003A00080918402809383028091820280938102F3
:1003B0008091800280937F0280917E0280937D02F3
:1003C00081E080937C0210928902E0918902E150E1
:1003D000E730A8F4F0E08827EF50FE4F8F4F0C94E1
:1003E0004403F8011002140218021C022002240225
:1003F00082E0890F8093000282E0809389029F3F10
:1004000019F481E080938902FF91EF919F918F9180
:100410002F910F900BBE0F900FBE0F901F9018954D
:100420009093880283E0E9CF9093860284E0E5CF41
:100430009093840285E0E1CF9093820286E0DDCF45
:100440009093800287E0D9CF90937E0288E0D5CF49
:100450001F920F920FB60F9211248F939F93AF9319
:10046000BF938091780290917902A0917A02B09125
:100470007B020196A11DB11D8093780290937902B1
:10048000A0937A02B0937B02BF91AF919F918F911D
:100490000F900FBE0F901F90189548E14093C10038
:1004A00096E09093C20027E630E03093C500209399
:1004B000C4008091C10080688093C1004093C9004E
:1004C0009093CA003093CD002093CC008091C90056
:1004D00080688093C9001092200188E080932101F8
:1004E00010922501109224018FE79EE39093290139
:1004F00080932801809173008260809373008091C3
:100500002101816080932101789487E080937A00B3
:1005100080E480937C0010927B0080917A00806858
:1005200080937A002FEF89EF90E021508040904037
:10053000E1F700C00000BB24B39403E012E028E31D
:10054000E22E22E0F22E8091780290917902A09121
:100550007A02B0917B028093740290937502A0930B
:100560007602B093770280917B00877F80937B0037
:1005700080917C00807E80937C0080917A008064F2
:1005800080937A0080917A0086FDFCCFC09078003D
:10059000D090790080917B00877F80937B00909141
:1005A0007C00907E916090937C0080917A008064C2
:1005B00080937A0080917A0086FDFCCFC09178000C
:1005C000D0917900D694C794D694C794D695C79500
:1005D000D695C795CE0199279F938F93C6019927EA
:1005E0009F938F931F92BF921F930F93FF92EF924F
:1005F0000E944C03E8E3F2E08DB79EB70A960FB66F
:10060000F8949EBF0FBE8DBF8191811136C080913D
:10061000740290917502A0917602B0917702409198
:1006200034025091350260913602709137023C01DC
:100630004D01641A750A860A970AB401A30144366B
:1006400051056105710508F47ECF809334029093C3
:100650003502A0933602B09337028EEF0E94BF009E
:1006600081E00E94BF008C2D0E94BF008C2F0E9451
:10067000BF008DEF0E94BF0066CF9091C00095FF34
:10068000FCCF8093C600C0CFEE0FFF1F881F8BBF2B
:100690000790F691E02D19940F931F93CF93DF935A
:1006A000CDB7DEB72E970FB6F894DEBF0FBECDBF25
:1006B0000E891F8986E08C831A8309838FEF9FE759
:1006C0009E838D83AE01465E5F4F688D798DCE012E
:1006D00001960E947C032F813885020F131FF801B9
:1006E00010822E960FB6F894DEBF0FBECDBFDF91FD
:1006F000CF911F910F9108952F923F924F925F9249
:100700006F927F928F929F92AF92BF92CF92DF9221
:10071000EF92FF920F931F93CF93DF9300D000D0FF
:1007200000D01F921F92CDB7DEB77C013B018A013A
:10073000FC0117821682838181FFDDC1CE01019603
:100740005C01F7019381F30193FD859193FF819102
:100750003F01882309F453C1853239F493FD859113
:1007600093FF81913F01853229F4B70190E00E9407
:100770009405E7CF912C212C312CFFE1F31538F0B3
:100780008B3211F190F4803209F1833229F137FC78
:100790003CC020ED280F2A3050F536FE20C08AE0FC
:1007A000989E200D1124922E06C08D3291F0803338
:1007B00071F7689430F8F30193FD859193FF81916F
:1007C0003F018111DACF21C0689431F8689432F882
:1007D000F2CF689433F8EFCF689434F8ECCFEAE0C6
:1007E0002E9E200D1124222E689435F8E4CF8E32EF
:1007F00029F436FC04C1689436F8DDCF8C3619F440
:10080000689437F8D8CF8836B1F2982F9F7D9554E9
:100810009330E0F08336A1F18337C1F1833509F0DD
:1008200063C02801F2E04F0E511CF801C080D18056
:10083000692D70E036FC02C06FEF7FEFC6010E94A9
:100840007E054C01689437F882010AC00C5F1F4F87
:10085000FFE3F98388248394912C6501E89437F8A9
:1008600033FE2DC0522C8114910471F5552009F4EA
:1008700068CFB70180E290E00E9494055A94F6CFC9
:10088000F801808189830E5F1F4FE4CF2801F2E0D9
:100890004F0E511CF801C080D180692D70E036FCEC
:1008A00002C06FEF7FEFC6010E9489054C018201F3
:1008B000D5CFB70180E290E00E9494052A942814D5
:1008C000190409F0B0F7CECFF60137FC859137FE59
:1008D00081916F01B70190E00E94940551105A94E4
:1008E000F1E08F1A9108BFCF843619F0893609F0EC
:1008F00077C0F80137FE6BC060817181828193817E
:100900000C5F1F4FF32DFF763F2E97FF09C0909588
:100910008095709561957F4F8F4F9F4F689437F802
:100920002AE030E0A5010E94C405C82ECA188C2C0C
:10093000432C36FE0CC0E89440F8C91440F434FE51
:1009400005C032FC03C0F32DFE7E4F2E892C44FEE1
:10095000AAC0FE01EC0DF11D8081803309F09CC01E
:10096000242D297E422E842D8870582E43FCAAC047
:1009700040FEA4C09C2C821418F42C0C922C9818C5
:1009800044FEA6C0B70180E390E00E94940542FEB9
:1009900009C088E790E041FE02C088E590E0B70119
:1009A0000E949405C91408F49FC0CA94D12C9FEFEB
:1009B000C91AD90ACA0CDB1CF60182916F01B70172
:1009C00090E00E949405AC14BD04B1F74FCF608154
:1009D0007181072E000C880B990B0E5F1F4F92CF71
:1009E000D32CE894D4F82AE030E08537E1F1232DC8
:1009F000297FD22E8F36A9F1F0F4883551F1F70115
:100A0000868197812B960FB6F894DEBF0FBECDBFBF
:100A1000DF91CF911F910F91FF90EF90DF90CF90DA
:100A2000BF90AF909F908F907F906F905F904F900E
:100A30003F902F900895803749F0883701F7D4FE12
:100A400002C06894D2F820E130E00DC06894D4F878
:100A5000F6CF34FE03C0822F8660D82E20E132E02C
:100A600002C028E030E0F801D7FE0FC0608171813C
:100A7000828193810C5F1F4FA5010E94C405C82E7F
:100A8000CA183D2CE89437F852CF6081718190E00C
:100A900080E00E5F1F4FF0CF42FC02C0839463CF13
:100AA0008394839460CF842D867809F45CCFF6CF4D
:100AB000B70180E290E00E94940583948214C0F311
:100AC000512C5ECF522C5818821408F459CFF8CF0D
:100AD000842D867809F466CF8BE241FE80E247FCE4
:100AE0008DE2B70190E05CCFB70180E390E00E9417
:100AF00094059A9457CF8FEF9FEF84CFFC01059018
:100B0000615070400110D8F7809590958E0F9F1F0F
:100B10000895FC016150704001900110D8F7809554
:100B200090958E0F9F1F08950F931F93CF93DF9380
:100B3000182F092FEB018B8181FD09C01FEF0FEFEB
:100B4000812F902FDF91CF911F910F91089582FFF8
:100B500014C02E813F818C819D81281739073CF478
:100B6000E881F981CF0101969983888310838E8172
:100B70009F8101969F838E83E3CFE885F985812F3E
:100B80001995892BA1F3DACFFA01AA27283051F160
:100B9000203181F1E8946F936E7F6E5F7F4F8F4FAE
:100BA0009F4FAF4FB1E03ED0B4E03CD0670F781F0D
:100BB000891F9A1FA11D680F791F8A1F911DA11DF2
:100BC0006A0F711D811D911DA11D20D009F468942B
:100BD0003F912AE0269F11243019305D3193DEF6D3
:100BE000CF010895462F4770405D4193B3E00FD089
:100BF000C9F7F6CF462F4F70405D4A3318F0495D74
:100C000031FD4052419302D0A9F7EACFB4E0A69556
:100C10009795879577956795BA95C9F70097610578
:100C2000710508959B01AC010A2E069457954795CE
:100C300037952795BA95C9F7620F731F841F951FC3
:080C4000A01D0895F894FFCFF8
:100C480006060654782028436F6E74726F6C6C65C4
:100C580072293A20436F6E73743A25752C20583ADE
:0C0C680025752C20593A25750D0A000056
:00000001FF
