:100000000C949C000C94BD000C94BD000C94BD009D
:100010000C94BD000C94BD000C94BD000C94BD006C
:100020000C94BD000C94BD000C94BD000C94BD005C
:100030000C94BD000C94BD000C94BD000C94BD004C
:100040000C94BD000C94BD000C94BD000C94BD003C
:100050000C94BD000C94BD000C94BD000C94BD002C
:100060000C94BD000C94AB010C94BD000C94BD002D
:100070000C94BD000C94BD000C94BD000C94BD000C
:100080000C94BD000C94BD000C94BD000C94BD00FC
:100090000C9446020C94BD000C94BD000C94BD0061
:1000A0000C94BD000C94BD000C94BD000C94BD00DC
:1000B0000C94BD000C94BD000C94BD000C94210266
:1000C0000C94BD000C94BD000C94BD000C94350143
:1000D0000C94BD000C94BD000C94BF000C94BD00AA
:1000E0000C94BD000C942D010C9429010C94A301D7
:1000F0000C941D010C9497010C9493010C949F0196
:100100000C9415020C9421010C9405010C943101FE
:100110000C94A7010C947B010C94F1010C949B01AD
:100120000C9409020C940D020C9425010C941902F4
:100130000C9411020C941D0211241FBECFEFD1E2CA
:10014000DEBFCDBF00E00CBF12E0A0E0B2E0E2E90C
:10015000FDE000E00BBF02C007900D92A832B1078E
:10016000D9F722E0A8E2B2E001C01D92AE39B20791
:10017000E1F70E9486020C94C7060C9400001F92BF
:100180000F920FB60F9211240BB60F922F938F93ED
:100190009F93EF93FF93909136019E3F19F5209125
:1001A000040280919D0228131BC080919C028093C1
:1001B0009B0280919A028093990280919802809389
:1001C0009702809196028093950280919402809389
:1001D0009302809192028093910281E08093900239
:1001E00010929D02E0919D02E150E730A8F4F0E00A
:1001F0008827E250FF4F8F4F0C94B10305011D017A
:100200002101250129012D01310182E0890F80930F
:10021000040282E080939D029F3F19F481E0809365
:100220009D02FF91EF919F918F912F910F900BBEA7
:100230000F900FBE0F901F90189590939C0283E033
:10024000E9CF90939A0284E0E5CF9093980285E0FD
:10025000E1CF9093960286E0DDCF9093940287E001
:10026000D9CF9093920288E0D5CF1F920F920FB60C
:100270000F9211240BB60F922F938F939F93EF93AE
:10028000FF939091D6009E3F19F520910302809133
:100290008F0228131BC080918E0280938D02809163
:1002A0008C0280938B0280918A02809389028091D4
:1002B00088028093870280918602809385028091D4
:1002C00084028093830281E08093900210928F02D7
:1002D000E0918F02E150E730A8F4F0E08827EC5875
:1002E000FE4F8F4F0C94B1037B01930197019B014B
:1002F0009F01A301A70182E0890F8093030282E09E
:1003000080938F029F3F19F481E080938F02FF91C9
:10031000EF919F918F912F910F900BBE0F900FBE79
:100320000F901F90189590938E0283E0E9CF9093E1
:100330008C0284E0E5CF90938A0285E0E1CF909330
:10034000880286E0DDCF9093860287E0D9CF909334
:10035000840288E0D5CF1F920F920FB60F9211241E
:100360000BB60F922F938F939F93EF93FF939091E0
:10037000C6009E3F19F52091020280918202281347
:100380001BC0809181028093800280917F028093C4
:100390007E0280917D0280937C0280917B0280931B
:1003A0007A0280917902809378028091770280931B
:1003B000760281E08093750210928202E0918202BF
:1003C000E150E730A8F4F0E08827E651FE4F8F4F68
:1003D0000C94B103F10109020D0211021502190278
:1003E0001D0282E0890F8093020282E080938202E4
:1003F0009F3F19F481E080938202FF91EF919F91DA
:100400008F912F910F900BBE0F900FBE0F901F90EA
:1004100018959093810283E0E9CF90937F0284E066
:10042000E5CF90937D0285E0E1CF90937B0286E05B
:10043000DDCF9093790287E0D9CF9093770288E05F
:10044000D5CF1F920F920FB60F9211248F939F93C7
:10045000AF93BF938091710290917202A091730249
:10046000B09174020196A11DB11D80937102909309
:100470007202A0937302B0937402BF91AF919F91E7
:100480008F910F900FBE0F901F9018951F920F9293
:100490000FB60F9211248F939F939091CE0080916D
:1004A0007002823059F138F48823C1F0813001F1B3
:1004B0001092700216C0833029F18430C9F79D3F35
:1004C000B9F780916D0280936C0280916E028093E7
:1004D000010280916F0280930002EACF81E09E3F8B
:1004E00051F09F918F910F900FBE0F901F90189514
:1004F00090936D0282E080937002F3CF90936E022E
:1005000083E0F9CF90936F0284E0F5CF48E1409308
:10051000C10096E09093C20027E630E03093C5001A
:100520002093C4008091C10080688093C1004093F3
:10053000C9009093CA003093CD002093CC008091E5
:10054000C90080688093C9001092200188E08093E0
:10055000210110922501109224018FE79EE39093D0
:100560002901809328018091730082608093730039
:100570008091210181608093210178942FEF49EFD0
:1005800080E0215040408040E1F700C0000084B18D
:10059000806684B981B18A6A81B982B1857582B970
:1005A00080EA8093800082E18093810080ED97E073
:1005B00090938700809386008091C9008068809323
:1005C000C900789480E8482E512C612C712C95E05C
:1005D000292E92E0392E20E3822E22E0922EC09125
:1005E0000102C058DD0B009100020058110B5E01A2
:1005F000A00EB11E6801CC1ADD0ACE01D7FF04C0DF
:10060000882799278C1B9D0B459754F4C80117FF29
:1006100004C088279927801B910B45970CF465C06F
:1006200020ED37E0D5010E94B903A30192010E9499
:100630009203790137FF04C0EE24FF24E21AF30A83
:1006400020ED37E0D6010E94B903A30192010E9478
:100650009203C90137FF04C088279927821B930B97
:10066000970141EDE41647E0F40614F020ED37E081
:10067000813D47E0940714F080ED97E030938900C6
:100680002093880090938B0080938A0085E1A816C0
:10069000B10484F1119A139825E1C216D104B4F182
:1006A000159A17981F930F93DF93CF9380916C0245
:1006B0001F928F933F922F929F928F920E94F103ED
:1006C000E0E3F2E08DB79EB70A960FB6F8949EBFAE
:1006D0000FBE8DBF8191882309F481CF9091C00016
:1006E00095FFFCCF8093C600F5CF90E080E030E02E
:1006F00020E0C4CF9CEEA9169FEFB9061CF4119818
:10070000139ACACF82B1857F82B9C6CF4CEEC41688
:100710004FEFD4061CF41598179AC4CF82B18F7589
:1007200082B9C0CF052E97FB1EF400940E94A90346
:1007300057FD07D00E94C00307FC03D04EF40C9471
:10074000A90350954095309521953F4F4F4F5F4FEE
:10075000089590958095709561957F4F8F4F9F4F2D
:100760000895EE0FFF1F881F8BBF0790F691E02DB5
:1007700019940E94E203B7FF0895821B930B08951A
:10078000A1E21A2EAA1BBB1BFD010DC0AA1FBB1F95
:10079000EE1FFF1FA217B307E407F50720F0A21B07
:1007A000B30BE40BF50B661F771F881F991F1A9474
:1007B00069F760957095809590959B01AC01BD019E
:1007C000CF010895A29FB001B39FC001A39F700DF8
:1007D000811D1124911DB29F700D811D1124911D49
:1007E00008950F931F93CF93DF93CDB7DEB72E9766
:1007F0000FB6F894DEBF0FBECDBF0E891F8986E00D
:100800008C831A8309838FEF9FE79E838D83AE01CC
:10081000465E5F4F688D798DCE0101960E9421045E
:100820002F813885020F131FF80110822E960FB604
:10083000F894DEBF0FBECDBFDF91CF911F910F9116
:1008400008952F923F924F925F926F927F928F9274
:100850009F92AF92BF92CF92DF92EF92FF920F934F
:100860001F93CF93DF9300D000D000D01F921F9230
:10087000CDB7DEB77C013B018A01FC0117821682ED
:10088000838181FFDDC1CE0101965C01F701938177
:10089000F30193FD859193FF81913F01882309F432
:1008A00053C1853239F493FD859193FF81913F01C6
:1008B000853229F4B70190E00E943906E7CF912CE8
:1008C000212C312CFFE1F31538F08B3211F190F42B
:1008D000803209F1833229F137FC3CC020ED280F2A
:1008E0002A3050F536FE20C08AE0989E200D112453
:1008F000922E06C08D3291F0803371F7689430F8F3
:10090000F30193FD859193FF81913F018111DACF2E
:1009100021C0689431F8689432F8F2CF689433F8C3
:10092000EFCF689434F8ECCFEAE02E9E200D11242E
:10093000222E689435F8E4CF8E3229F436FC04C1B7
:10094000689436F8DDCF8C3619F4689437F8D8CF30
:100950008836B1F2982F9F7D95549330E0F083361E
:10096000A1F18337C1F1833509F063C02801F2E0BA
:100970004F0E511CF801C080D180692D70E036FC0B
:1009800002C06FEF7FEFC6010E9423064C016894FE
:1009900037F882010AC00C5F1F4FFFE3F9838824F8
:1009A0008394912C6501E89437F833FE2DC0522CC6
:1009B0008114910471F5552009F468CFB70180E2E4
:1009C00090E00E9439065A94F6CFF801808189831D
:1009D0000E5F1F4FE4CF2801F2E04F0E511CF801CB
:1009E000C080D180692D70E036FC02C06FEF7FEFD0
:1009F000C6010E942E064C018201D5CFB70180E2CC
:100A000090E00E9439062A942814190409F0B0F7DE
:100A1000CECFF60137FC859137FE81916F01B7018A
:100A200090E00E94390651105A94F1E08F1A910813
:100A3000BFCF843619F0893609F077C0F80137FE48
:100A40006BC060817181828193810C5F1F4FF32D98
:100A5000FF763F2E97FF09C0909580957095619520
:100A60007F4F8F4F9F4F689437F82AE030E0A50101
:100A70000E946906C82ECA188C2C432C36FE0CC066
:100A8000E89440F8C91440F434FE05C032FC03C0B9
:100A9000F32DFE7E4F2E892C44FEAAC0FE01EC0DE4
:100AA000F11D8081803309F09CC0242D297E422EC7
:100AB000842D8870582E43FCAAC040FEA4C09C2CF4
:100AC000821418F42C0C922C981844FEA6C0B7017E
:100AD00080E390E00E94390642FE09C088E790E07A
:100AE00041FE02C088E590E0B7010E943906C914B2
:100AF00008F49FC0CA94D12C9FEFC91AD90ACA0C16
:100B0000DB1CF60182916F01B70190E00E9439066B
:100B1000AC14BD04B1F74FCF60817181072E000C7A
:100B2000880B990B0E5F1F4F92CFD32CE894D4F80B
:100B30002AE030E08537E1F1232D297FD22E8F3650
:100B4000A9F1F0F4883551F1F701868197812B9650
:100B50000FB6F894DEBF0FBECDBFDF91CF911F91CE
:100B60000F91FF90EF90DF90CF90BF90AF909F904C
:100B70008F907F906F905F904F903F902F9008954F
:100B8000803749F0883701F7D4FE02C06894D2F864
:100B900020E130E00DC06894D4F8F6CF34FE03C0F5
:100BA000822F8660D82E20E132E002C028E030E0BB
:100BB000F801D7FE0FC060817181828193810C5F43
:100BC0001F4FA5010E946906C82ECA183D2CE89443
:100BD00037F852CF6081718190E080E00E5F1F4F47
:100BE000F0CF42FC02C0839463CF8394839460CFA0
:100BF000842D867809F45CCFF6CFB70180E290E0CF
:100C00000E94390683948214C0F3512C5ECF522C7B
:100C10005818821408F459CFF8CF842D867809F437
:100C200066CF8BE241FE80E247FC8DE2B70190E0A7
:100C30005CCFB70180E390E00E9439069A9457CFC9
:100C40008FEF9FEF84CFFC01059061507040011041
:100C5000D8F7809590958E0F9F1F0895FC016150E5
:100C6000704001900110D8F7809590958E0F9F1FCE
:100C700008950F931F93CF93DF93182F092FEB0144
:100C80008B8181FD09C01FEF0FEF812F902FDF9126
:100C9000CF911F910F91089582FF14C02E813F8143
:100CA0008C819D81281739073CF4E881F981CF01B7
:100CB00001969983888310838E819F8101969F83FB
:100CC0008E83E3CFE885F985812F1995892BA1F3D0
:100CD000DACFFA01AA27283051F1203181F1E894C6
:100CE0006F936E7F6E5F7F4F8F4F9F4FAF4FB1E01F
:100CF0003ED0B4E03CD0670F781F891F9A1FA11D1A
:100D0000680F791F8A1F911DA11D6A0F711D811D1A
:100D1000911DA11D20D009F468943F912AE0269FDF
:100D200011243019305D3193DEF6CF010895462F3E
:100D30004770405D4193B3E00FD0C9F7F6CF462F1F
:100D40004F70405D4A3318F0495D31FD4052419388
:100D500002D0A9F7EACFB4E0A69597958795779545
:100D60006795BA95C9F700976105710508959B01CC
:100D7000AC010A2E06945795479537952795BA9555
:100D8000C9F7620F731F841F951FA01D0895F89463
:020D9000FFCF93
:100D9200808006060652782028526F626F74293AC4
:100DA20020436F6E73743D25752C20583D25642CAD
:080DB20020593D25640A0000F0
:00000001FF
